{
  "contractName": "CropInsurance",
  "abi": [
    {
      "inputs": [],
      "stateMutability": "nonpayable",
      "type": "constructor"
    },
    {
      "inputs": [
        {
          "internalType": "address",
          "name": "owner",
          "type": "address"
        }
      ],
      "name": "OwnableInvalidOwner",
      "type": "error"
    },
    {
      "inputs": [
        {
          "internalType": "address",
          "name": "account",
          "type": "address"
        }
      ],
      "name": "OwnableUnauthorizedAccount",
      "type": "error"
    },
    {
      "anonymous": false,
      "inputs": [
        {
          "indexed": true,
          "internalType": "address",
          "name": "previousOwner",
          "type": "address"
        },
        {
          "indexed": true,
          "internalType": "address",
          "name": "newOwner",
          "type": "address"
        }
      ],
      "name": "OwnershipTransferred",
      "type": "event"
    },
    {
      "anonymous": false,
      "inputs": [
        {
          "indexed": true,
          "internalType": "uint256",
          "name": "policyId",
          "type": "uint256"
        },
        {
          "indexed": true,
          "internalType": "address",
          "name": "farmer",
          "type": "address"
        },
        {
          "indexed": false,
          "internalType": "uint256",
          "name": "amount",
          "type": "uint256"
        }
      ],
      "name": "PayoutTriggered",
      "type": "event"
    },
    {
      "anonymous": false,
      "inputs": [
        {
          "indexed": true,
          "internalType": "uint256",
          "name": "policyId",
          "type": "uint256"
        },
        {
          "indexed": true,
          "internalType": "address",
          "name": "farmer",
          "type": "address"
        }
      ],
      "name": "PolicyAccepted",
      "type": "event"
    },
    {
      "anonymous": false,
      "inputs": [
        {
          "indexed": true,
          "internalType": "uint256",
          "name": "policyId",
          "type": "uint256"
        },
        {
          "indexed": true,
          "internalType": "address",
          "name": "farmer",
          "type": "address"
        }
      ],
      "name": "PolicyRegistered",
      "type": "event"
    },
    {
      "inputs": [],
      "name": "nextPolicyId",
      "outputs": [
        {
          "internalType": "uint256",
          "name": "",
          "type": "uint256"
        }
      ],
      "stateMutability": "view",
      "type": "function",
      "constant": true
    },
    {
      "inputs": [],
      "name": "owner",
      "outputs": [
        {
          "internalType": "address",
          "name": "",
          "type": "address"
        }
      ],
      "stateMutability": "view",
      "type": "function",
      "constant": true
    },
    {
      "inputs": [
        {
          "internalType": "uint256",
          "name": "",
          "type": "uint256"
        }
      ],
      "name": "policies",
      "outputs": [
        {
          "internalType": "address",
          "name": "farmerAddress",
          "type": "address"
        },
        {
          "internalType": "string",
          "name": "farmerName",
          "type": "string"
        },
        {
          "internalType": "uint256",
          "name": "landSize",
          "type": "uint256"
        },
        {
          "internalType": "string",
          "name": "cropType",
          "type": "string"
        },
        {
          "internalType": "uint256",
          "name": "premiumAmount",
          "type": "uint256"
        },
        {
          "internalType": "uint256",
          "name": "payoutAmount",
          "type": "uint256"
        },
        {
          "internalType": "string",
          "name": "insuranceType",
          "type": "string"
        },
        {
          "internalType": "string",
          "name": "location",
          "type": "string"
        },
        {
          "internalType": "bool",
          "name": "isAccepted",
          "type": "bool"
        },
        {
          "internalType": "bool",
          "name": "isPaid",
          "type": "bool"
        }
      ],
      "stateMutability": "view",
      "type": "function",
      "constant": true
    },
    {
      "inputs": [],
      "name": "renounceOwnership",
      "outputs": [],
      "stateMutability": "nonpayable",
      "type": "function"
    },
    {
      "inputs": [
        {
          "internalType": "address",
          "name": "newOwner",
          "type": "address"
        }
      ],
      "name": "transferOwnership",
      "outputs": [],
      "stateMutability": "nonpayable",
      "type": "function"
    },
    {
      "stateMutability": "payable",
      "type": "receive",
      "payable": true
    },
    {
      "inputs": [
        {
          "internalType": "address",
          "name": "_farmerAddress",
          "type": "address"
        },
        {
          "internalType": "string",
          "name": "_farmerName",
          "type": "string"
        },
        {
          "internalType": "uint256",
          "name": "_landSize",
          "type": "uint256"
        },
        {
          "internalType": "string",
          "name": "_cropType",
          "type": "string"
        },
        {
          "internalType": "uint256",
          "name": "_premiumAmount",
          "type": "uint256"
        },
        {
          "internalType": "uint256",
          "name": "_payoutAmount",
          "type": "uint256"
        },
        {
          "internalType": "string",
          "name": "_insuranceType",
          "type": "string"
        },
        {
          "internalType": "string",
          "name": "_location",
          "type": "string"
        }
      ],
      "name": "registerPolicy",
      "outputs": [
        {
          "internalType": "uint256",
          "name": "",
          "type": "uint256"
        }
      ],
      "stateMutability": "nonpayable",
      "type": "function"
    },
    {
      "inputs": [
        {
          "internalType": "uint256",
          "name": "_policyId",
          "type": "uint256"
        }
      ],
      "name": "acceptInsurance",
      "outputs": [],
      "stateMutability": "nonpayable",
      "type": "function"
    },
    {
      "inputs": [
        {
          "internalType": "uint256",
          "name": "_policyId",
          "type": "uint256"
        }
      ],
      "name": "triggerPayout",
      "outputs": [],
      "stateMutability": "nonpayable",
      "type": "function"
    },
    {
      "inputs": [],
      "name": "getContractBalance",
      "outputs": [
        {
          "internalType": "uint256",
          "name": "",
          "type": "uint256"
        }
      ],
      "stateMutability": "view",
      "type": "function",
      "constant": true
    }
  ],
  "bytecode": "0x60808060405234610097573315610068576000805433600160a060020a0319821681178355604051929091600160a060020a0316907f8be0079c531659141344cd1fd0a4f28419497f9722a3daafe3b4186f6b6457e09080a360018055611111908161009d8239f35b807f1e4fbdf7000000000000000000000000000000000000000000000000000000006024925260006004820152fd5b600080fdfe608080604052600436101561001d575b50361561001b57600080fd5b005b7c0100000000000000000000000000000000000000000000000000000000600035049081636f9fb98a14610e3d57508063715018a614610dd757806376653b3a14610cfd5780638da5cb5b14610cd6578063b1b358d414610ac6578063c5b2910d1461025e578063cad0b8db14610240578063d3e894831461014d5763f2fde38b146100a9573861000f565b34610148576020366003190112610148576100c2610e57565b6100ca610ff6565b600160a060020a038091169081156101175760005482600160a060020a0319821617600055167f8be0079c531659141344cd1fd0a4f28419497f9722a3daafe3b4186f6b6457e0600080a3005b60246040517f1e4fbdf700000000000000000000000000000000000000000000000000000000815260006004820152fd5b600080fd5b346101485760203660031901126101485760043560005260026020526040600020600160a060020a0381541661018560018301610f11565b9160ff6102246002830154926102166101a060038301610f11565b9460048301549060058401546101fe6101bb60068701610f11565b9260086101ca60078901610f11565b970154996101eb6040519d8e9d8e528d610140908160208201520190610fb6565b9160408d01528b820360608d0152610fb6565b9260808a015260a089015287820360c0890152610fb6565b9085820360e0870152610fb6565b9161010090828116151582860152041615156101208301520390f35b34610148576000366003190112610148576020600154604051908152f35b346101485761010036600319011261014857610278610e57565b60243567ffffffffffffffff811161014857610298903690600401610e6d565b60649291923567ffffffffffffffff8111610148576102bb903690600401610e6d565b909160c43567ffffffffffffffff8111610148576102dd903690600401610e6d565b9160e43567ffffffffffffffff8111610148576102fe903690600401610e6d565b929093610309610ff6565b60843560a4351115610a7f57600160a060020a03881615610a385782156109f15785156109aa5760015498604051978861014081011067ffffffffffffffff6101408b011117610705576103b99761037d610391936103ad97600160a060020a038e6101408f01604052168d523691611056565b60208b015260443560408b01523691611056565b6060880152608435608088015260a43560a08801523691611056565b60c08501523691611056565b60e0820152600061010082015260006101208201528260005260026020526040600020600160a060020a03825116600160a060020a0319825416178155602082015180519067ffffffffffffffff821161070557819061041c6001850154610e9b565b601f8111610957575b50602090601f83116001146108e3576000926108d8575b5050816002029160080260020a6000190419161760018201555b60408201516002820155606082015180519067ffffffffffffffff82116107055781906104866003850154610e9b565b601f8111610885575b50602090601f831160011461081157600092610806575b5050816002029160080260020a6000190419161760038201555b6080820151600482015560a0820151600582015560c082015180519067ffffffffffffffff82116107055781906104fa6006850154610e9b565b601f81116107b3575b50602090601f831160011461073f57600092610734575b5050816002029160080260020a6000190419161760068201555b60e082015180519067ffffffffffffffff8211610705576105586007840154610e9b565b601f81116106be575b50602090601f83116001146106495760089392916000918361063e575b50508160020291840260020a6000190419161760078201555b019061010081015115159060ff61ff0061010061012086549401511515021692169061ffff19161717905560015491600019831461060f57600160209301600155600160a060020a036040519216817f5647077ba6faf0b3176f8589f0d752dc156994057008b88157cf05f35069c31e600080a38152f35b7f4e487b7100000000000000000000000000000000000000000000000000000000600052601160045260246000fd5b01519050878061057e565b906007840160005260206000209160005b601f19851681106106a65750926001926002926008969583601f1981161061068c575b50505002016007820155610597565b0151601f83168702840a600019041916905588808061067d565b9192602060018192868501518155019401920161065a565b6007840160005260206000206020601f8501048101602085106106fe575b6020601f840104820181106106f2575050610561565b600081556001016106dc565b50806106dc565b7f4e487b7100000000000000000000000000000000000000000000000000000000600052604160045260246000fd5b01519050868061051a565b91506006840160005260206000209160005b601f198516811061079b5750918391600293600195601f19811610610780575b50505002016006820155610534565b01516008601f841602840a6000190419169055878080610771565b91926020600181928685015181550194019201610751565b9091506006840160005260206000206020601f8501048101602085106107ff575b90849392915b6020601f840104820181106107f0575050610503565b600081558594506001016107da565b50806107d4565b0151905086806104a6565b91506003840160005260206000209160005b601f198516811061086d5750918391600293600195601f19811610610852575b505050020160038201556104c0565b01516008601f841602840a6000190419169055878080610843565b91926020600181928685015181550194019201610823565b9091506003840160005260206000206020601f8501048101602085106108d1575b90849392915b6020601f840104820181106108c257505061048f565b600081558594506001016108ac565b50806108a6565b01519050868061043c565b91506001840160005260206000209160005b601f198516811061093f5750918391600293600195601f19811610610924575b50505002016001820155610456565b01516008601f841602840a6000190419169055878080610915565b919260206001819286850151815501940192016108f5565b9091506001840160005260206000206020601f8501048101602085106109a3575b90849392915b6020601f84010482018110610994575050610425565b6000815585945060010161097e565b5080610978565b606460405160e560020a62461bcd02815260206004820152601960248201527f43726f7020747970652063616e6e6f7420626520656d707479000000000000006044820152fd5b606460405160e560020a62461bcd02815260206004820152601b60248201527f4661726d6572206e616d652063616e6e6f7420626520656d70747900000000006044820152fd5b606460405160e560020a62461bcd02815260206004820152601660248201527f496e76616c6964206661726d65722061646472657373000000000000000000006044820152fd5b606460405160e560020a62461bcd02815260206004820152601a60248201527f5061796f7574206d75737420657863656564207072656d69756d0000000000006044820152fd5b346101485760208060031936011261014857600435610ae3610ff6565b80151580610ccb575b610af59061108d565b8060005260028252604060002090600882019182549260ff841615610c845761010060ff81860416610c3d573031946005840154809610610bf65794600094600160a060020a038695869586958b9a61ff001916179055541680917f7884580f743f908c98258afac53f9e0929cd6787b3488df80e096df15409ef8f89604051868152a35af13d15610bf1573d610b8b8161103a565b90610b996040519283610eef565b81526000833d92013e5b15610baa57005b6064906040519060e560020a62461bcd0282526004820152601660248201527f5061796f7574207472616e73666572206661696c6564000000000000000000006044820152fd5b610ba3565b6064876040519060e560020a62461bcd0282526004820152601d60248201527f496e73756666696369656e7420636f6e74726163742062616c616e63650000006044820152fd5b6064866040519060e560020a62461bcd0282526004820152601860248201527f5061796f757420616c72656164792070726f63657373656400000000000000006044820152fd5b6064856040519060e560020a62461bcd0282526004820152601360248201527f506f6c696379206e6f74206163636570746564000000000000000000000000006044820152fd5b506001548110610aec565b34610148576000366003190112610148576020600160a060020a0360005416604051908152f35b3461014857602036600319011261014857600435610d19610ff6565b80151580610dcc575b610d2b9061108d565b8060005260026020526040600020600881019081549160ff8316610d85576001600160a060020a039360ff19161790555416907f6c9508f7faeda8225292a6475bdf4716fca5e172e82c68af926d2895b56cc63a600080a3005b606460405160e560020a62461bcd02815260206004820152601760248201527f506f6c69637920616c72656164792061636365707465640000000000000000006044820152fd5b506001548110610d22565b3461014857600036600319011261014857610df0610ff6565b6000805473ffffffffffffffffffffffffffffffffffffffff1981168255600160a060020a03167f8be0079c531659141344cd1fd0a4f28419497f9722a3daafe3b4186f6b6457e08280a3005b346101485760003660031901126101485760209030318152f35b60043590600160a060020a038216820361014857565b9181601f840112156101485782359167ffffffffffffffff8311610148576020838186019501011161014857565b9060016002830492168015610ee5575b6020831014610eb657565b7f4e487b7100000000000000000000000000000000000000000000000000000000600052602260045260246000fd5b91607f1691610eab565b90601f8019910116810190811067ffffffffffffffff82111761070557604052565b9060405191826000825492610f2584610e9b565b908184526001948581169081600014610f945750600114610f51575b5050610f4f92500383610eef565b565b9093915060005260209081600020936000915b818310610f7c575050610f4f93508201013880610f41565b85548884018501529485019487945091830191610f64565b915050610f4f94506020925060ff191682840152151581028201013880610f41565b919082519283825260005b848110610fe2575050826000602080949584010152601f8019910116010190565b602081830181015184830182015201610fc1565b600160a060020a0360005416330361100a57565b60246040517f118cdaa7000000000000000000000000000000000000000000000000000000008152336004820152fd5b67ffffffffffffffff811161070557601f01601f191660200190565b9291926110628261103a565b916110706040519384610eef565b829481845281830111610148578281602093846000960137010152565b1561109457565b606460405160e560020a62461bcd02815260206004820152601160248201527f496e76616c696420706f6c6963792049440000000000000000000000000000006044820152fdfea2646970667358221220c0d90f23bf2298b2097e1bf43d840a6b8c2fbcab494eb3b226f403f0a47c898364736f6c63430008140033",
  "immutableReferences": {},
  "source": "// SPDX-License-Identifier: MIT\r\npragma solidity ^0.8.20;\r\n\r\nimport \"@openzeppelin/contracts/access/Ownable.sol\";\r\n\r\ncontract CropInsurance is Ownable {\r\n    uint public nextPolicyId;\r\n    \r\n    struct Policy {\r\n        address farmerAddress;\r\n        string farmerName;\r\n        uint landSize;\r\n        string cropType;\r\n        uint premiumAmount;\r\n        uint payoutAmount;\r\n        string insuranceType;\r\n        string location;\r\n        bool isAccepted;\r\n        bool isPaid;\r\n    }\r\n\r\n    mapping(uint => Policy) public policies;\r\n    \r\n    // 🔥 THESE EVENTS WERE MISSING - CRITICAL FOR YOUR BACKEND\r\n    event PolicyRegistered(uint indexed policyId, address indexed farmer);\r\n    event PolicyAccepted(uint indexed policyId, address indexed farmer);\r\n    event PayoutTriggered(uint indexed policyId, address indexed farmer, uint amount);\r\n\r\n    constructor() Ownable(msg.sender) {\r\n        nextPolicyId = 1;\r\n    }\r\n\r\n    modifier onlyValidPolicy(uint _policyId) {\r\n        require(_policyId > 0 && _policyId < nextPolicyId, \"Invalid policy ID\");\r\n        _;\r\n    }\r\n\r\n    function registerPolicy(\r\n        address _farmerAddress, \r\n        string calldata _farmerName, \r\n        uint _landSize, \r\n        string calldata _cropType, \r\n        uint _premiumAmount, \r\n        uint _payoutAmount, \r\n        string calldata _insuranceType, \r\n        string calldata _location\r\n    ) external onlyOwner returns (uint) {\r\n        require(_payoutAmount > _premiumAmount, \"Payout must exceed premium\");\r\n        require(_farmerAddress != address(0), \"Invalid farmer address\");\r\n        require(bytes(_farmerName).length > 0, \"Farmer name cannot be empty\");\r\n        require(bytes(_cropType).length > 0, \"Crop type cannot be empty\");\r\n        \r\n        uint currentPolicyId = nextPolicyId;\r\n        policies[currentPolicyId] = Policy({\r\n            farmerAddress: _farmerAddress,\r\n            farmerName: _farmerName,\r\n            landSize: _landSize,\r\n            cropType: _cropType,\r\n            premiumAmount: _premiumAmount,\r\n            payoutAmount: _payoutAmount,\r\n            insuranceType: _insuranceType,\r\n            location: _location,\r\n            isAccepted: false,\r\n            isPaid: false\r\n        });\r\n        nextPolicyId++;\r\n        \r\n        // 🔥 THIS EVENT WAS MISSING - YOUR BACKEND NEEDS IT\r\n        emit PolicyRegistered(currentPolicyId, _farmerAddress);\r\n        \r\n        return currentPolicyId;\r\n    }\r\n\r\n    function acceptInsurance(uint _policyId) \r\n        external \r\n        onlyOwner \r\n        onlyValidPolicy(_policyId)\r\n    {\r\n        Policy storage policy = policies[_policyId];\r\n        require(!policy.isAccepted, \"Policy already accepted\");\r\n        policy.isAccepted = true;\r\n        \r\n        emit PolicyAccepted(_policyId, policy.farmerAddress);\r\n    }\r\n\r\n    function triggerPayout(uint _policyId) external onlyOwner onlyValidPolicy(_policyId) {\r\n        Policy storage policy = policies[_policyId];\r\n        require(policy.isAccepted, \"Policy not accepted\");\r\n        require(!policy.isPaid, \"Payout already processed\");\r\n        require(address(this).balance >= policy.payoutAmount, \"Insufficient contract balance\");\r\n\r\n        policy.isPaid = true;\r\n        \r\n        emit PayoutTriggered(_policyId, policy.farmerAddress, policy.payoutAmount);\r\n        \r\n        (bool success, ) = payable(policy.farmerAddress).call{value: policy.payoutAmount}(\"\");\r\n        require(success, \"Payout transfer failed\");\r\n    }\r\n    \r\n    // Helper functions\r\n    function getContractBalance() external view returns (uint) {\r\n        return address(this).balance;\r\n    }\r\n    \r\n    receive() external payable {}\r\n}\r\n",
  "sourcePath": "C:\\Users\\dwara\\crop-insurance-app\\smart-contract\\contracts\\CropInsurance.sol",
  "compiler": {
    "name": "solc",
    "version": "0.8.20+commit.a1b79de6.Emscripten.clang"
  },
  "schemaVersion": "3.4.16",
  "updatedAt": "2025-08-09T16:46:46.085Z",
  "networkType": "ethereum",
  "devdoc": {
    "errors": {
      "OwnableInvalidOwner(address)": [
        {
          "details": "The owner is not a valid owner account. (eg. `address(0)`)"
        }
      ],
      "OwnableUnauthorizedAccount(address)": [
        {
          "details": "The caller account is not authorized to perform an operation."
        }
      ]
    },
    "kind": "dev",
    "methods": {
      "owner()": {
        "details": "Returns the address of the current owner."
      },
      "renounceOwnership()": {
        "details": "Leaves the contract without owner. It will not be possible to call `onlyOwner` functions. Can only be called by the current owner. NOTE: Renouncing ownership will leave the contract without an owner, thereby disabling any functionality that is only available to the owner."
      },
      "transferOwnership(address)": {
        "details": "Transfers ownership of the contract to a new account (`newOwner`). Can only be called by the current owner."
      }
    },
    "version": 1
  },
  "userdoc": {
    "kind": "user",
    "methods": {},
    "version": 1
  }
}